:020000020000FC
:100000000C943F000C9440330C941B330C948033BD
:100010000C943E000C94A0330C943E000C9460337E
:100020000C943E000C943E000C943E000C943E0058
:100030000C943E000C94062F0C94332F0C943E002D
:100040000C943E000C943E000C943E000C943E0038
:100050000C943E000C943E000C943E000C943E0028
:100060000C943E000C943E000C943E000C943E0018
:100070000C943E000C943E000C943E0018950FEF3B
:100080000DBF08E00EBFA4E6B0E00E94F63A0E9461
:100090002B070E944E3A0E9462070E94F81200E06D
:1000A0000093C60600E00093C70600E00093C80670
:1000B00000E00093C90600270093F80600E00093D3
:1000C000050700E00093060700270093D40600937D
:1000D000D5060093D6060093D7060093D806009362
:1000E000D9060093DA060093DB060093DC06009342
:1000F000DD06009310070093110700931207009389
:100100001307009314070093150700931607009335
:10011000170700931807009319070FE000934E0686
:1001200000EA00934F0600E000935006E0E1F7E09C
:10013000E0930E07F0930F070E9494160E94B01DE3
:1001400078940E94093B093011F40E94CE110E945C
:10015000B01D06E006BB0E94E52E0E94FF330E9400
:10016000EC060E94871C0E94590A0E940C280E94DB
:10017000AC0A0E94D8260E9414020E94CF070E9457
:10018000B0090E94372F0090050710900607011450
:1001900081F000910507009306070090EF06009498
:1001A0000092FD060090F5061090FD0601280092D1
:1001B000F5060090F9061090FA0601240092FD065B
:1001C0000090EF0600940092FE060090FD0610904D
:1001D000FE0601200092FD060090F5061090FD0637
:1001E00001280092F5060090F9061090F90601200A
:1001F0000092FA060091F50600232AF400270093E6
:10020000F5060E94C81A0091EF0600230AF4A3CF56
:1002100003B1009502950F70013021F000E00093CA
:10022000FB0699CF0091FB0603950093FB06009116
:10023000FB06023309F48FCF90E090936F000E9489
:10024000F6080E949E3583CF0E94A33A01E00093F6
:10025000C40601E00093C50600E00093C00601E07B
:100260000093C106EF93FF93E0EBF3E00E94BB38ED
:10027000FF91EF9100E00093C0060EE00093C106ED
:10028000EF93FF93E2ECF3E00E94BB38FF91EF9114
:10029000E5E9F0E00E94253B0E94603800E0009311
:1002A000C00607E10093C106EF93FF93E2EDF3E090
:1002B0000E94BB38FF91EF910E94253B0E9460385D
:1002C00000E00093C00600E20093C106EF93FF93A5
:1002D000E2EEF3E00E94BB38FF91EF910E94253BD4
:1002E0000E94603800E00093C00609E20093C10656
:1002F000EF93FF93E2EFF3E00E94BB38FF91EF91A1
:100300000E94253B0E94603800E00093C00609E38C
:100310000093C106EF93FF93E2E0F4E00E94BB3844
:10032000FF91EF91E8E1F4E004E0019FE00DF11DA1
:1003300005910093C00605910093C10605910093B5
:10034000C20604910093C30600E00093C4060E9415
:10035000D9370E944E3A0E941A3B083009F408959A
:10036000043021F41A950AF413E06ECF023029F418
:100370001395143009F410E067CF0130C1F4E5E9BA
:10038000F0E002E0019FE00DF11D0E94253BC0E07E
:10039000D3E8E0E0FDE70E947524A02DB12DE5E94A
:1003A000F0E002E0019FE00DF11D0E942C3B4CCFDC
:1003B00043616D6572612053746162205365747589
:1003C0007000526F6C6C206761696E202020203AAB
:1003D0000000526F6C6C206F666673657420203A63
:1003E00000005069746368206761696E2020203ABC
:1003F00000005069746368206F6666736574203A04
:1004000000004241434B2050524556204E4558541F
:10041000204348414E474500530D6E1653166E1F3C
:10042000531F6E2853286E3100916F060093780693
:1004300000917006009379060091710600937A0688
:1004400010915A0620915B0630915C0640916C0633
:1004500050916D0660916E060E94723B709340054C
:1004600080934105209242053091780640917906AB
:1004700050917A0660914005709141058091420546
:10048000580F471F361F30937806409379065093D4
:100490007A060091750600937B060091760600931C
:1004A0007C060091770600937D0610915D062091F1
:1004B0005E0630915F06409172065091730660911E
:1004C00074060E94723B7093400580934105209210
:1004D000420530917B0640917C0650917D066091EB
:1004E00040057091410580914205580F471F361F06
:1004F00030937B0640937C0650937D0600E000938A
:100500004005009341050093420530916C064091EF
:100510006D0650916E066091400570914105809185
:10052000420558174707360709F441C03091720653
:100530004091730650917406609140057091410599
:100540008091420558174707360709F430C00091DB
:1005500078060093E205009179060093E305009187
:100560007A060093E40500917B060093E50500916F
:100570007C060093E60500917D060093E705009157
:100580006F06009312060091700600931306009107
:1005900071060093140600917506009315060091EC
:1005A00076060093160600917706009317060895C5
:1005B00000917E060093820600917F0600938306D9
:1005C00000918006009384060091810600938506C1
:1005D000089520907E0630907F06409080065090CF
:1005E000810660907E0670907F06809080069090D5
:1005F00081060E94E33B1093A2062093A30630934A
:10060000A4064093A5065091A2066091A30670919E
:10061000A4068091A50601E00E944F3C5093A206DB
:100620006093A3067093A4068093A50601E000934F
:10063000A60600E00093A70600E00093A80600E0ED
:100640000093A9061091A6062091A7063091A8064E
:100650004091A9065091A2066091A3067091A4064C
:100660008091A506481B370B260B150B10938606A9
:100670002093870630938806409389060895B093A7
:100680007E06A0937F06D0938006C093810603E088
:100690000093A20607E00093A3060EEA0093A406C7
:1006A00000E00093A50620907E0630907F064090E3
:1006B0008006509081066090A2067090A3068090FC
:1006C000A4069090A5060E94E33B10937E0620931B
:1006D0007F0630938006409381060895CD2FDA2F50
:1006E000AB2FBB2312F4BFEF0895BB27089560DF43
:1006F00070DF20909A0630909B0640909C065090A8
:100700009D0660908606709087068090880690907F
:1007100089060E94E33B1093B2062093B306309300
:10072000B4064093B50620909E0630909F064090F8
:10073000A0065090A106609082067090830680907B
:100740008406909085060E94E33B1093A2062093B6
:10075000A3063093A4064093A5061091B2062091FB
:10076000B3063091B4064091B5065091A20660914F
:10077000A3067091A4068091A506481B370B260B93
:10078000150B1093B2062093B3063093B406409332
:10079000B50620909A0630909B0640909C0650909B
:1007A0009D066090820670908306809084069090EB
:1007B00085060E94E33B1093B6062093B70630935C
:1007C000B8064093B90620909E0630909F06409050
:1007D000A0065090A10660908606709087068090D3
:1007E0008806909089060E94E33B1093A20620930E
:1007F000A3063093A4064093A5061091B606209157
:10080000B7063091B8064091B9065091A2066091A2
:10081000A3067091A4068091A506480F371F261FD6
:10082000151F1093B6062093B7063093B806409371
:10083000B9060895B0916A05A0916B05D0916C0539
:100840004DDF1DDF00918E0600939A0600918F0602
:1008500000939B060091900600939C0600919106E0
:1008600000939D060091920600939E0600919306C8
:1008700000939F06009194060093A00600919506B0
:100880000093A10634DF0091B20600938E0600911A
:10089000B30600938F060091B40600939006009172
:1008A000B506009391060091B6060093920600915A
:1008B000B706009393060091B80600939406009142
:1008C000B90600939506B0916705A0916805D0918F
:1008D000690504DFD4DE00918A0600939A06009130
:1008E0008B0600939B0600918C0600939C0600915A
:1008F0008D0600939D060091920600939E0600913E
:10090000930600939F06009194060093A006009121
:1009100095060093A106EBDE0091B20600938A06CD
:100920000091B30600938B060091B40600938C06E9
:100930000091B50600938D060091B60600939206CD
:100940000091B706009393060091B80600939406B1
:100950000091B90600939506B0915B05A0915C05E6
:10096000D0915D05BBDE8BDE00918A0600939A066E
:1009700000918B0600939B0600918C0600939C06C9
:1009800000918D0600939D0600918E0600939E06B1
:1009900000918F0600939F06009190060093A00699
:1009A000009191060093A106A2DE0091B206009389
:1009B0008A060091B30600938B060091B40600935B
:1009C0008C060091B50600938D060091B606009343
:1009D0008E060091B70600938F060091B80600932B
:1009E00090060091B90600939106089520908A061A
:1009F00030908B0640908C0650908D0660908A0651
:100A000070908B0680908C0690908D060E94E33B40
:100A10001093A2062093A3063093A4064093A50644
:100A200020908E0630908F06409090065090910650
:100A300060908E0670908F06809090069090910640
:100A40000E94E33B1093A6062093A7063093A806C6
:100A50004093A9061091A2062091A3063091A40606
:100A60004091A5065091A6066091A7067091A80630
:100A70008091A906480F371F261F151F1093A20645
:100A80002093A3063093A4064093A50620909206D7
:100A90003090930640909406509095066090920690
:100AA0007090930680909406909095060E94E33B88
:100AB0001093A6062093A7063093A8064093A90694
:100AC0001091A2062091A3063091A4064091A5069C
:100AD0005091A6066091A7067091A8068091A9067C
:100AE000480F371F261F151F109396062093970651
:100AF0003093980640939906089500918A060093D2
:100B0000AE0600918B060093AF0600918C06009311
:100B1000B00600918D060093B1062AD000916006C0
:100B200000935A060091610600935B0600916206ED
:100B300000935C0600918E060093AE0600918F062E
:100B40000093AF06009190060093B00600919106C5
:100B50000093B1060DD00091600600935D060091F0
:100B6000610600935E060091620600935F06089599
:100B70000AE50093A60600E00093A70600E00093B4
:100B8000A80600E00093A9062090AE063090AF06BC
:100B90004090B0065090B1066090A6067090A706EF
:100BA0008090A8069090A9060E94E33B1093A206AD
:100BB0002093A3063093A4064093A506B091A20605
:100BC000A091A306D091A406C091A50687DDB0939D
:100BD0006006A0936106D093620608950E94A33A2E
:100BE00001E00093C40601E00093C50600E0009315
:100BF000C00601E00093C106EF93FF93E8E6FDE035
:100C00000E94BB38FF91EF91ECE8F0E00E94333B8B
:100C1000BB270E94603800E00093C0060090C10628
:100C200009E0000E0092C106EF93FF93E6E7FDE0B6
:100C30000E94BB38FF91EF910E94333B0E946038C5
:100C400000E00093C0060090C10609E0000E00928B
:100C5000C106EF93FF93E4E8FDE00E94BB38FF91EB
:100C6000EF910E94333B0E94603800E00093C00681
:100C70000090C10609E0000E0092C106EF93FF93B9
:100C8000E2E9FDE00E94BB38FF91EF910E94333B07
:100C90000E94603800E00093C0060090C10609E0A1
:100CA000000E0092C106EF93FF93E0EAFDE00E9480
:100CB000BB38FF91EF910E94333B0E94603800E007
:100CC0000093C00609E30093C106EF93FF93EEEA99
:100CD000FDE00E94BB38FF91EF91E4ECFDE004E001
:100CE000019FE00DF11D05910093C0060591009351
:100CF000C10605910093C20604910093C30600E06B
:100D00000093C4060E94D9370E944E3A0E941A3BB3
:100D1000083009F40895043021F41A950AF414E017
:100D20005DCF023029F41395153009F410E056CF49
:100D30000130C9F4ECE8F0E001E0019FE00DF11DA5
:100D40000E94333BC1E0D0E0E8E0F0E0B0E00E9478
:100D50007524A02DB12DECE8F0E001E0019FE00D3D
:100D6000F11D0E94373B3ACF526F6C6C20284169CD
:100D70006C2920203A0050697463682028456C650E
:100D800029203A005468726F74746C65202020200A
:100D90003A005961772028527564292020203A00B2
:100DA0004155582020202020202020203A00424178
:100DB000434B2050524556204E45585420434841FD
:100DC0004E4745004D0055094D0955124D12551B12
:100DD0004D1B55244D24552D00E0009340050093F4
:100DE00041050093420530914E0640914F065091C7
:100DF0005006609140057091410580914205581759
:100E00004707360759F030914E0640914F06415042
:100E1000304030934E0640934F0608950091E3060C
:100E200000231AF002E0009305070091E406002376
:100E30001AF003E0009305070091E50600231AF07D
:100E400004E0009305070091E60600231AF005E090
:100E500000930507089500E001B90AE004B90FEF17
:100E600007B902EF0AB90FEF00937E0005EF05B94D
:100E70000DE00BB900E00093800002E000938100D8
:100E800000E00093820005E10093690007E00DBBDC
:100E90000AE00093680001E00093730001E0009312
:100EA0006C005D9A5C9A5E982B9A299AA4EFB1E047
:100EB0000E94F63A2B9829985E9AA4E6B0E00E9428
:100EC000F63A08950E94A33A01E00093C40601E0B7
:100ED0000093C50600E00093C0060AE00093C10637
:100EE000EF93FF93EAE1FFE00E94BB38FF91EF919F
:100EF00000E00093C00603E10093C106EF93FF9367
:100F0000E6E2FFE00E94BB38FF91EF910E944E3A6B
:100F1000A8EEB3E00E94F63A089556657273696FC1
:100F20006E20312E3600427920526F6C6620527549
:100F30006E61722042616B6B65000E94A33A01E012
:100F40000093C40601E00093C50604E10093C006C7
:100F500009E10093C106EF93FF93ECE7F8E10E94EB
:100F6000BB38FF91EF9100E00093C00609E30093C6
:100F7000C106EF93FF93EAE8F8E10E94BB38FF91C6
:100F8000EF910E944E3A0E941A3B013009F00895F9
:100F90000027E0E0F0E00E94573B0C943F0000E0A7
:100FA00000934005009341050093420530914206AD
:100FB000409143065091440660914005709141056F
:100FC0008091420558174707360759F0309142067D
:100FD00040914306415030403093420640934306CF
:100FE00003C00027009304070090EF061090F1065D
:100FF00001200092FD060091FD060023B2F530911C
:101000003F06409140064150304030933F064093A8
:10101000400600E00093400500934105009342051F
:1010200030913F0640914006509141066091400545
:101030007091410580914205581747073607ACF477
:1010400003E000933F0600E20093400600E00093B7
:1010500041060FEF0093040700E00093420604E10D
:101060000093430600E0009344060090EF061090C2
:10107000F00601240092FD060090EF061090EF06A6
:1010800001200092F0060091FD0600233AF400E0F2
:1010900000935106009352060093530600E000931C
:1010A000400500E00093410501E0009342053091C6
:1010B000510640915206509153066091400570913F
:1010C000410580914205580F471F361F3093510646
:1010D00040935206509353060DE70093400500E0FD
:1010E0000093410500E00093420530915106409184
:1010F00052065091530660914005709141058091D0
:10110000420558174707360764F0009140050093E1
:10111000510600914105009352060091420500934B
:1011200053060AE0009340050CEF0093410500E8E8
:10113000009342053091510640915206509153065A
:10114000609140057091410580914205581747070D
:101150003607B4F130915406409155064150304065
:10116000309354064093550600E0009340050093E9
:101170004105009342053091540640915506509127
:1011800056066091400570914105809142055817BF
:1011900047073607ACF407E00093540600ED0093D0
:1011A000550600E0009356060FEF0093040701E098
:1011B0000093420600E90093430600E000934406D2
:1011C000009004071090030701280092FD0600908C
:1011D000FD0610900A0701280092FD060091FD0609
:1011E000002312F029980895299A08950F93CF9318
:1011F000299AC2E30E94FB3A2998CF910F91089552
:10120000402F2A2F3B2F0E94A33A01E00093C406EF
:1012100004E00093C506203049F00AE30093C006BD
:1012200000E00093C10602E00E94C138022F0B5F6C
:10123000041749F00AE30093C00602E30093C106D5
:1012400003E00E94C13801E00093C50608E0009366
:10125000C10615E0FE0104E1029FE00DF11D00E072
:101260000093C006A4E105910E94C138AA95D9F760
:101270000090C10608E0000E0092C1061A9579F7A9
:1012800008E0039F002D095F0093C106075F0093EC
:10129000C30600E00093C0060FE70093C20600E01B
:1012A0000093C4060E94D93700E00093C00609E30A
:1012B0000093C106EF93FF93EAE4F3E10E94BB3889
:1012C000FF91EF910E944E3AAEE10E94093B00303F
:1012D00011F0AA95D1F70E94093B0030E1F30E947A
:1012E000F608083019F4AA2788942BC0043061F45A
:1012F000303019F03A950C94A409203019F02A9551
:101300000C94A4090C94A409023071F4343019F03F
:1013100033950C94A409042F0550201719F0239538
:101320000C94A4090C94A409013071F40E94A33A0E
:101330000E944E3A0E94093B0030E1F7A22FA30F12
:101340000894C22FD32F08955ECF4241434B2020F3
:101350005550202020444F574E20454E54455200B2
:1013600030917F0540918005509181056091820503
:101370007091830580918405581B470B360B309381
:101380009705409398055093990560919705709142
:1013900098058091990508E00E94633B609397054A
:1013A000709398058093990530918205409183054B
:1013B00050918405609197057091980580919905E9
:1013C000580F471F361F3093820540938305509373
:1013D0008405309127064091280650912906609196
:1013E00082057091830580918405581B470B360B4D
:1013F0003093970540939805509399050AF455C08A
:1014000060919705709198058091990502E00E947E
:10141000633B60939705709398058093990500E06E
:101420000093400500E10093410500E00093420570
:10143000309197054091980550919905609140052C
:10144000709141058091420558174707360764F0AF
:101450000091400500939705009141050093980580
:101460000091420500939905309136064091370668
:101470005091380660919705709198058091990573
:10148000580F471F361F3093360640933706509348
:101490003806B0913606A0913706D0913806AA23B7
:1014A00022F00FEF0093030708950027009303072E
:1014B00008950091EF0600236AF13091570640919C
:1014C000580641503040309357064093580600E08C
:1014D0000093400500934105009342053091570663
:1014E0004091580650915906609140057091410510
:1014F0008091420558174707360764F40FEF0093B1
:10150000F50601E00093570600E90093580600E055
:10151000009359060090F6061090F80601200092FC
:10152000FD060090F60600940092FF060090FF066C
:101530001090F90601200092FE060090FD06109022
:10154000FE0601280092F7060091EF06002312F034
:101550002B9808952B9A08951091690620916A0698
:1015600030916B064091210650912206609123062E
:101570000E94723B70934005809341052092420582
:101580000091240600931806009125060093190681
:101590000091260600931A063091400540914105BE
:1015A00050914205609118067091190680911A06B3
:1015B00058174707360764F0009118060093400556
:1015C000009119060093410500911A060093420507
:1015D000609118067091190680911A0655274427C4
:1015E0003327581B470B360B3093180640931906C8
:1015F00050931A06309140054091410550914205A3
:10160000609118067091190680911A0658174707BD
:10161000360764F4009118060093400500911906FE
:101620000093410500911A060093420530914C0544
:1016300040914D0550914E056091400570914105D6
:1016400080914205581B470B360B30934C05409355
:101650004D0550934E050895C0E0D7E1A091C9060D
:10166000B091C80603E10E940009C093C906D09357
:10167000C80608F008950E94A33A01E00093C4064A
:1016800001E00093C50604E10093C00609E1009360
:10169000C106EF93FF93ECE7F8E10E94BB38FF919E
:1016A000EF9100E00093C00609E30093C106EF93B9
:1016B000FF93EAE8F8E10E94BB38FF91EF910E94A6
:1016C0004E3A0E941A3B013009F0C6CF299AE0EA4F
:1016D000F8E100E40A9FE00DF11DDF01C4E0D0E075
:1016E00010E4FD010491FE010E94573B11962196E2
:1016F0001A95B9F729980E94B01D0E949C0FACCF93
:1017000053696E676C65436F7074657220324D204B
:101710003253202053696E676C65436F7074657235
:1017200020314D20345320204475616C436F707418
:101730006572202020202020202020205472694320
:101740006F7074657220202020202020202020200F
:10175000593620202020202020202020202020203A
:101760002020202051756164726F436F7074657220
:10177000202B206D6F64652051756164726F436F1B
:10178000707465722078206D6F6465205838202051
:101790002020202020202020202B206D6F64652019
:1017A0005838202020202020202020202078206D44
:1017B0006F64652048657861436F7074657220209E
:1017C000202B206D6F64652048657861436F7074CD
:1017D000657220202078206D6F6465204F63746FE0
:1017E000436F707465722020202B206D6F6465201C
:1017F0004F63746F436F7074657220202078206D82
:101800006F646520483620202020202020202020C2
:101810002020202020202020483820202020202088
:10182000202020202020202020202020563620206C
:1018300020202020202020202020202020202020A8
:10184000563820202020202020202020202020204A
:10185000202020205934202020202020202020203B
:101860002020202020202020562D5461696C20202B
:1018700020202020202020202020202041726520B0
:10188000796F7520737572653F0043414E43454C37
:1018900020202020202020202020202059455300D7
:1018A00064000064000300006400009C000300006A
:1018B00000640000320000000000640032000000FC
:1018C0000000000000000000000000000000000018
:1018D0000000000000000000000000000000000008
:1018E0006400000000030000006400643200000097
:1018F0000000646432000000009C006432000000BC
:1019000000009C64320000000000000000000000A5
:1019100000000000000000000000000000000000C7
:101920006464000000030000649C000000030000E9
:10193000000064640000000000009C6400000000DF
:101940000000000000000000000000000000000097
:101950000000000000000000000000000000000087
:1019600064A9320000030000645732FF0003000046
:1019700064009C00000300000000006432000000CE
:101980000000000000000000000000000000000057
:101990000000000000000000000000000000000047
:1019A00064A932640003000064A9329C00030000B3
:1019B00064573264000300006457329C0003000047
:1019C00064009C640003000064009C9C0003000011
:1019D0000000000000000000000000000000000007
:1019E00064006464000300006464009C0003000061
:1019F00064009C6400030000649C009C00030000E1
:101A000000000000000000000000000000000000D6
:101A100000000000000000000000000000000000C6
:101A200064B94764000300006447479C000300005A
:101A30006447B9640003000064B9B99C0003000066
:101A40000000000000000000000000000000000096
:101A50000000000000000000000000000000000086
:101A600064006464000300006400649C00030000E0
:101A700064640064000300006464009C00030000D0
:101A800064009C640003000064009C9C0003000050
:101A9000649C006400030000649C009C0003000040
:101AA00064B947640003000064B9479C0003000068
:101AB00064474764000300006447479C000300003C
:101AC0006447B964000300006447B99C0003000048
:101AD00064B9B9640003000064B9B99C0003000054
:101AE00064006464000300006457329C000300003B
:101AF0006457CE640003000064009C9C0003000057
:101B000064A9CE640003000064A9329C00030000B5
:101B100000000000000000000000000000000000C5
:101B200064325764000300006464009C00030000FA
:101B30006432A9640003000064CEA99C0003000085
:101B4000649C00640003000064CE579C0003000006
:101B50000000000000000000000000000000000085
:101B600064006464000300006447479C00030000B5
:101B700064640064000300006447B99C0003000033
:101B800064009C640003000064B9B99C0003000079
:101B9000649C00640003000064B9479C00030000DB
:101BA00064265C6400030000645C269C0003000063
:101BB000645CDA64000300006426A49C0003000057
:101BC00064DAA4640003000064A4DA9C000300004B
:101BD00064A426640003000064DA5C9C0003000037
:101BE00064474764000300006447009C0003000052
:101BF0006447B9640003000064B9B99C00030000A5
:101C000064B900640003000064B9479C000300004D
:101C100000000000000000000000000000000000C4
:101C200064474764000300006447189C00030000F9
:101C30006447E864000300006447B99C00030000A7
:101C400064B9B9640003000064B9E89C00030000B3
:101C500064B918640003000064B9479C00030000E5
:101C600064644764000300006447009C00030000B4
:101C7000642AB9640003000064D6B99C0003000024
:101C800064B9006400030000649C479C00030000EA
:101C90000000000000000000000000000000000044
:101CA00064644764000300006451189C0003000052
:101CB000643DE86400030000642AB99C000300004E
:101CC00064D6B9640003000064C3E89C000300000C
:101CD00064AF186400030000649C479C000300008C
:101CE00064B94764000300006447479C0003000098
:101CF00064009C640003000064009C9C00030000DE
:101D000000000000000000000000000000000000D3
:101D100000000000000000000000000000000000C3
:101D200064B9470000030000644747FF0003000058
:101D30007800A664000300007800A69C0003000061
:101D40000000000000000000000000000000000093
:101D50000000000000000000000000000000000083
:101D60000E94A33A01E00093C40601E00093C50677
:101D700000E00093C00601E00093C106EF93FF93DB
:101D8000EAECFEE10E94BB38FF91EF91E2E7F0E060
:101D90000E94253B0E94603800E00093C00600903E
:101DA000C10609E0000E0092C106EF93FF93E4ED37
:101DB000FEE10E94BB38FF91EF910E94253B0E94FB
:101DC000603800E00093C0060090C1060CE0000EF1
:101DD0000092C106EF93FF93EEEDFEE10E94BB3847
:101DE000FF91EF910E94253B0E94603800E0009334
:101DF000C0060090C10609E0000E0092C106EF93F4
:101E0000FF93E0EFFEE10E94BB38FF91EF910E944B
:101E1000253B0E94603800E00093C00609E3009370
:101E2000C106EF93FF93E2E0FFE10E94BB38FF9110
:101E3000EF91E8E1FFE104E0019FE00DF11D059164
:101E40000093C00605910093C10605910093C20658
:101E500004910093C30600E00093C4060E94D937A2
:101E60000E944E3A0E941A3B083009F4089504304B
:101E700021F41A950AF413E073CF023029F4139574
:101E8000143009F410E06CCF0130F1F4E2E7F0E037
:101E900002E0019FE00DF11DEF93FF930E94253BAF
:101EA000E8E2FFE104E0019FE00DF11DC591D5914D
:101EB00005901590E02DF12D0E947524A02DB12DD7
:101EC000FF91EF910E942C3B4BCF50204761696EF0
:101ED00020203A0050206C696D6974203A0041431B
:101EE00043205472696D20526F6C6C20203A0000C0
:101EF000414343205472696D205069746368203AED
:101F000000004241434B2050524556204E45585404
:101F1000204348414E47450035004F0935094F12CF
:101F20005F157F1E5F1E7F270000007D0000007D83
:101F300018FCE80318FCE80344240E94A33A00E0DC
:101F40000093C00600E00093C10601E00093C506BF
:101F500001E00093C406EF93FF93E8E5F3E20E94EB
:101F6000BB38FF91EF914420A1F4EF93FF93E0E69B
:101F7000F3E20E94BB38FF91EF910FEF602E08E073
:101F8000802E55240E94FE0F53948A948820D1F706
:101F900009C0542C5A94A42DBB270E946038662493
:101FA0000E94FE0F01E00093C50601E00093C40605
:101FB00000E00093C00609E30093C106EF93FF938E
:101FC000ECE6F3E20E94BB38FF91EF910E944E3A9B
:101FD0000E941A3B083009F40895043031F4439408
:101FE00009E0401609F44424A8CF023031F44A94A1
:101FF000442012F408E0402EA0CF9FCFE0E0F5E0AF
:1020000008E0059DE00DF11D01E00093C4060FEF0F
:10201000702EDD27A181BB27AA2312F4DFEFBFEFCB
:10202000B093CD05A093CE05D093CF0500E00093EB
:10203000400500934105009342053091CD05409144
:10204000CE055091CF05609140057091410580917A
:10205000420558174707360709F0772400E0009338
:10206000400500E00093410500E400934205109113
:10207000CD052091CE053091CF054091400550917E
:102080004105609142050E94723B7093CD0580939B
:10209000CE052092CF0500E00093400500E60093B6
:1020A000410500E0009342053091CD054091CE05F9
:1020B0005091CF0560914005709141058091420596
:1020C000580F471F361F3093CD054093CE055093D0
:1020D000CF05B091CD05A091CE05D091CF05A093AD
:1020E000C006DD27A281BB27AA2312F4DFEFBFEFD2
:1020F000B093CD05A093CE05D093CF0500E000931B
:10210000400500934105009342053091CD05409173
:10211000CE055091CF0560914005709141058091A9
:10212000420558174707360709F077240FEF009349
:1021300040050FEF0093410500EC0093420510911C
:10214000CD052091CE053091CF05409140055091AD
:102150004105609142050E94723B7093CD058093CA
:10216000CE052092CF0500E00093400500E20093E9
:10217000410500E0009342053091CD054091CE0528
:102180005091CF05609140057091410580914205C5
:10219000580F471F361F3093CD054093CE055093FF
:1021A000CF05B091CD05A091CE05D091CF05A093DC
:1021B000C106DD27A081BB27AA2312F4DFEFBFEF02
:1021C000B093CD05A093CE05D093CF0500E000934A
:1021D000400500934105009342053091CD054091A3
:1021E000CE055091CF0560914005709141058091D9
:1021F000420558174707360709F07724A381AA2319
:1022000009F07724772092F466200AF4089502E416
:102210000093C0060BE10093C106EF93FF93E0E546
:10222000F3E20E94BB38FF91EF910895A581A0FDD4
:1022300011C0662072F002E40093C0060BE1009327
:10224000C106EF93FF93E4E6F3E20E94BB38FF91EF
:10225000EF91089500E60093C20600E20093C306E2
:102260000E947A390091C00604500093C006009184
:10227000C10607500093C10604E00093C50604E0C0
:10228000A381AA230AF005E00E94C1380091C0068C
:102290000E500093C0060090C10605E0000E0092AB
:1022A000C10600E00093C50600E00093C406052DBA
:1022B0000E94C13866200AF44AC001E00093C506B6
:1022C00001E00093C40600E00093C0060FE0009315
:1022D000C106EF93FF93E0E8F3E20E94BB38FF9161
:1022E000EF9100E00093C00608E10093C106EF9370
:1022F000FF93EAE8F3E20E94BB38FF91EF9100E020
:102300000093C00601E20093C106EF93FF93E4E956
:10231000F3E20E94BB38FF91EF9100E00093C0060A
:102320000AE20093C106A381AA234AF0EF93FF9328
:10233000E8E7F3E20E94BB38FF91EF9108C0EF930A
:10234000FF93ECE7F3E20E94BB38FF91EF91089511
:10235000556E757365642E004D6F746F723A200070
:10236000414C4C00536572766F2E00004241434B46
:1023700020204E4558540000435700004343570067
:10238000446972656374696F6E007365656E20667B
:10239000726F6D0061626F76653A00000E94A33A29
:1023A00001E00093C40601E00093C50602E000933B
:1023B000C00609E10093C106EF93FF93EAEDF5E251
:1023C0000E94BB38FF91EF9100E00093C0060E948D
:1023D0004E3A00E00093E90600E00093EA0601E0CF
:1023E0000093EC0608E00093EB060FEF0093EF0676
:1023F00000E000933C0601E000933D0600E00093FE
:102400003E062B9A06E006BB0E94E52E0E94FF3393
:1024100000270093F10600E00093400508EC0093CC
:10242000410500E00093420530914C0540914D0577
:1024300050914E0560914005709141058091420593
:10244000581B470B360B3093400540934105509382
:10245000420500E0009318060093190600931A063F
:102460003091400540914105509142056091180618
:102470007091190680911A065817470736073CF4E1
:1024800000E000934005009341050093420500E001
:102490000093180606E00093190600E000931A0660
:1024A0001091400520914105309142054091180658
:1024B0005091190660911A060E94723B7093400574
:1024C000809341052092420500E00093180608E53C
:1024D000009319060CEC00931A06309140054091C8
:1024E000410550914205609118067091190680913E
:1024F0001A06580F471F361F309340054093410579
:1025000050934205009140050093D005009141058C
:102510000093D105009142050093D205009140053A
:102520000093D305009141050093D4050091420525
:102530000093D505009140050093D6050091410513
:102540000093D705009142050093D80500914005FE
:102550000093D905009141050093DA0500914205E9
:102560000093DB05009140050093DC0500914105D7
:102570000093DD05009142050093DE0500914005C2
:102580000093DF05009141050093E00500914205AD
:102590000093E105009140050093E205009141059B
:1025A0000093E305009142050093E4050091400586
:1025B0000093E505009141050093E6050091420571
:1025C0000093E7050E94372F03B1009502950F7025
:1025D000093009F419CF2B98089554726F74746CF4
:1025E0006520706173732D7468726F756768000081
:1025F000E0E0F0E00E944F3B3196093181F40E9407
:102600004F3B3196033059F40E944F3B31960337CC
:1026100031F40E944F3B3196053009F40895A4E04F
:10262000B0E0C8ECD7E210E4FE010491FD010E9485
:10263000573B119621961A95B9F7A4E4B0E0C8E08B
:10264000D8E218E1FE010491FD010E94573B11966A
:1026500021961A95B9F7A4E8B0E0C0E2D8E218E0F4
:10266000FE010491FD010E94573B119621961A9597
:10267000B9F7AAE0B0E0EAE7F0E00E942C3BA4E260
:10268000B0E0E0E7F0E00E942C3BA4E6B0E0E2E737
:10269000F0E00E942C3BA4E1B0E0E4E7F0E00E940F
:1026A0002C3BA0E0B0E0ECE7F0E00E942C3BAEE178
:1026B000B0E0EEE7F0E00E942C3BA0E0B0E0E0E804
:1026C000F0E00E942C3BA2E3B0E0E2E8F0E00E94E0
:1026D0002C3BA0E0B0E0E6E7F0E00E942C3BA0E05D
:1026E000B0E0E8E7F0E00E942C3BA1E0B0E0ECE8CD
:1026F000F0E00E94373BA2E0B0E0EDE8F0E00E949D
:10270000373BA3E0B0E0EEE8F0E00E94373BA4E006
:10271000B0E0EFE8F0E00E94373BA5E0B0E0E0E990
:10272000F0E00E94373BA0E0B0E0E5E9F0E00E9475
:102730002C3BA2E3B0E0E7E9F0E00E942C3BA0E0F4
:10274000B0E0E9E9F0E00E942C3BA2E3B0E0EBE965
:10275000F0E00E942C3B0FEFA02FE1E9F0E00E9497
:10276000373B0FEFA02FE2E9F0E00E94373B0FEF7D
:10277000A02FE3E9F0E00E94373BAA27EDE9F0E063
:102780000E94373BAA27E4E9F0E00E94373BE0E0F3
:10279000F0E009E10E94573B319603E00E94573B6D
:1027A000319603E70E94573B319605E00E94573B64
:1027B000319615E00E94F608C0E00E94FB3A1A9597
:1027C000C9F70E946836089564006464000300003D
:1027D0006464009C0003000064009C64000300002B
:1027E000649C009C0003000000000000000000004A
:1027F00000000000000000000000000000000000D9
:102800000000000000000000320064001900140005
:1028100032006400190014003200140032000A0073
:102820001E001E0032005A000E94A33A01E00093ED
:10283000C40601E00093C50600E00093C00601E075
:102840000093C106EF93FF93EAE5FEE20E94BB38D6
:10285000FF91EF9100E00093C0060090C10609E0EF
:10286000000E0092C106EF93FF93E0E7FEE20E94A4
:10287000BB38FF91EF9100E00093C0060090C106C5
:1028800009E0000E0092C106EF93FF93E4E8FEE238
:102890000E94BB38FF91EF9100E00093C0060090CA
:1028A000C10609E0000E0092C106EF93FF93E4E930
:1028B000FEE20E94BB38FF91EF9100E00093C0065A
:1028C0000090C10609E0000E0092C106EF93FF934D
:1028D000EAEAFEE20E94BB38FF91EF9100E000932C
:1028E000C0060090C10609E0000E0092C106EF93F9
:1028F000FF93ECEBFEE20E94BB38FF91EF9100E00A
:102900000093C00609E30093C106EF93FF93E4E44C
:10291000FEE20E94BB38FF91EF910E944E3A0E9466
:102920001A3B0130E1F7A5E3B0E00E94A33A00E0D2
:102930000093C00601E00093C106EF93FF93E2ED20
:10294000FEE20E94BB38FF91EF9100E00093C006C9
:102950000090C10609E0000E0092C106EF93FF93BC
:10296000E0EEFEE20E94BB38FF91EF9100E00093A1
:10297000C0060090C10609E0000E0092C106EF9368
:10298000FF93E0EFFEE20E94BB38FF91EF9100E081
:102990000093C0060090C10609E0000E0092C10637
:1029A000EF93FF93EAEFFEE20E94BB38FF91EF91B5
:1029B00000E00093C0060090C10609E0000E0092FE
:1029C000C106EF93FF93E8E0FFE20E94BB38FF915E
:1029D000EF9100E00093C0060090C10609E0000EF0
:1029E0000092C106EF93FF93E6E1FFE20E94BB383D
:1029F000FF91EF9108E70093C00601E00093C10644
:102A00000A2F0E94C13805E50093C00609E0B09F77
:102A1000002D065F0093C106EF93FF93E4E2FFE20F
:102A20000E94BB38FF91EF910E944E3AD7E0C0E080
:102A30000E94FB3ADA95D9F7B395B53009F075CF16
:102A4000B0E0AA95AF3209F070CF0E94A33A09E135
:102A50000093C00609E10093C106EF93FF93E8E2FB
:102A6000FFE20E94BB38FF91EF910E944E3AC0E016
:102A70000E94FB3AE0E100E00093760500937705C1
:102A80000093780500E00093790500937A050093A0
:102A90007B0500E000937C0500937D0500937E0597
:102AA0000E948A37309176054091770550917805DC
:102AB00060916D0570916E0580916F05580F471FED
:102AC000361F309376054093770550937805309103
:102AD000790540917A0550917B0560917005709160
:102AE000710580917205580F471F361F3093790585
:102AF00040937A0550937B0530917C0540917D058C
:102B000050917E05609173057091740580917505F3
:102B1000580F471F361F30937C0540937D05509317
:102B20007E05C4E60E94FB3AEA9509F0B9CF6091B0
:102B30007605709177058091780504E00E94633BEB
:102B40006093760570937705809378056091790599
:102B500070917A0580917B0504E00E94633B60934D
:102B6000790570937A0580937B0560917C0570915F
:102B70007D0580917E0504E00E94633B60937C05A7
:102B800070937D0580937E05D8E2C0E00E94FB3AF9
:102B9000DA95D9F70E94A33A0FEF0093FC0600E004
:102BA0000093C0060AE00093C106EF93FF93E4EEA2
:102BB000FEE60E94BB38FF91EF91B0917605A0919F
:102BC0007705D09178050E9460380E94413700E077
:102BD0000093C00603E10093C106EF93FF93EEEE6E
:102BE000FEE60E94BB38FF91EF91B0917905A0916C
:102BF0007A05D0917B050E9460380E94413700E041
:102C00000093C0060CE10093C106EF93FF93E8EF39
:102C1000FEE60E94BB38FF91EF91B0917C05A09138
:102C20007D05D0917E050E9460380E94413700E00A
:102C30000093C00609E30093C106EF93FF93E4E419
:102C4000FEE20E94BB38FF91EF910E944E3A009144
:102C5000FC06002322F5EDE5F0E0B0917605A091A9
:102C60007705D09178050E94453BB0917905A091F8
:102C70007A05D0917B050E94453BB0917C05A091DF
:102C80007D05D0917E050E94453BEDE9F0E00FEF18
:102C9000002F0E94573B00E00093050708C0EDE9B4
:102CA000F0E000270E94573B01E0009305070E94D7
:102CB0001A3B0130E1F70E94A33A0091FC06002381
:102CC0000AF40FC000E00093C00609E10093C106BA
:102CD000EF93FF93E8E3FFE20E94BB38FF91EF918F
:102CE0000EC000E00093C00609E10093C106EF9317
:102CF000FF93ECE4FFE20E94BB38FF91EF9100E00C
:102D00000093C00609E30093C106EF93FF93E4E448
:102D1000FEE20E94BB38FF91EF910E944E3A0E9462
:102D20001A3B0130E1F70895E0E100E000935E0511
:102D300000935F050093600500E000936105009338
:102D400062050093630500E0009364050093650548
:102D5000009366050E948A3730915E0540915F05B9
:102D60005091600560915505709156058091570509
:102D7000580F471F361F30935E0540935F055093F1
:102D80006005309161054091620550916305609145
:102D900058057091590580915A05580F471F361FE5
:102DA000309361054093620550936305309164054B
:102DB000409165055091660560915B0570915C05D9
:102DC00080915D05580F471F361F3093640540936F
:102DD000650550936605C4E60E94FB3AEA9509F042
:102DE000B9CF60915E0570915F058091600504E048
:102DF0000E94633B60935E0570935F05809360055E
:102E000060916105709162058091630504E00E9404
:102E1000633B6093610570936205809363056091E5
:102E20006405709165058091660504E00E94633B2E
:102E30006093640570936505809366050FEF0093BA
:102E40000B07089520202020202020202020202053
:102E500020434F4E54494E554500506C61636520E8
:102E6000746865206169726372616674206F6E00B8
:102E700061206C6576656C20737572666163652090
:102E8000616E6400707265737320434F4E54494EF7
:102E900055452E005468652046432077696C6C20A8
:102EA0007468656E207761697400352073656320EE
:102EB000746F206C657420746865000061697263CA
:102EC0007261667420736574746C6520646F776ECC
:102ED0002E0020202020206C646120232433350024
:102EE0006C6F6C3A207374612024303432370000E8
:102EF00020202020207365630000202020202073E4
:102F000062632023243031002020202020636D7054
:102F10002023243266002020202020626E65206C51
:102F20006F6C00003C2D2D0043616C69627261740E
:102F3000696E672E2E2E000043616C6962726174A7
:102F4000696F6E206661696C65642E0043616C690F
:102F500062726174696F6E20737563636565646521
:102F600064000E94A33A01E00093C40601E00093CC
:102F7000C50600E00093C00601E00093C106EF9390
:102F8000FF93EAE2F1E30E94BB38FF91EF91E1E9A0
:102F9000F0E00E94333BAA234AF4EF93FF93E6E864
:102FA000F1E30E94BB38FF91EF9108C0EF93FF93CC
:102FB000ECE8F1E30E94BB38FF91EF9100E0009351
:102FC000C0060AE00093C106EF93FF93EAE3F1E342
:102FD0000E94BB38FF91EF910E94333BAA234AF431
:102FE000EF93FF93E0E9F1E30E94BB38FF91EF918B
:102FF00008C0EF93FF93E4E9F1E30E94BB38FF912F
:10300000EF9100E00093C00603E10093C106EF9347
:10301000FF93ECE4F1E30E94BB38FF91EF910E9433
:10302000333BAA234AF4EF93FF93E0E9F1E30E94D4
:10303000BB38FF91EF9108C0EF93FF93E4E9F1E310
:103040000E94BB38FF91EF9100E00093C0060CE1B5
:103050000093C106EF93FF93ECE5F1E30E94BB38C8
:10306000FF91EF910E94333BAA234AF4EF93FF9321
:10307000E0E9F1E30E94BB38FF91EF9108C0EF93C4
:10308000FF93E4E9F1E30E94BB38FF91EF9100E088
:103090000093C00609E30093C106EF93FF93ECE6AB
:1030A000F1E30E94BB38FF91EF91E8E9F1E304E01E
:1030B000019FE00DF11D05910093C006059100935D
:1030C000C10605910093C20604910093C30600E077
:1030D0000093C4060E94D9370E944E3A0E941A3BC0
:1030E000083009F40895043021F41A950AF413E025
:1030F00038CF023029F41395143009F410E031CFA1
:10310000013091F4E1E9F0E001E0019FE00DF11DF3
:103110000E94333B00E8A027E1E9F0E001E0019FD5
:10312000E00DF11D0E94373B1CCF53656C662D4CA2
:103130006576656C20203A2000004C696E6B205249
:103140006F6C6C2050697463683A20004175746F2D
:103150002044697361726D203A2000004350504D45
:1031600020456E61626C65643A2000004241434B29
:103170002050524556204E455854204348414E4712
:1031800045004F6E0000537469636B004155580051
:10319000596573004E6F00005300720964097A127A
:1031A0005312681B531B68240E94A33A01E000934A
:1031B000C40601E00093C50600E00093C00601E0EC
:1031C0000093C106EF93FF93E4E2F3E30E94BB3860
:1031D000FF91EF91EAE7F0E00E94253B0E94603802
:1031E00000E00093C0060AE00093C106EF93FF934E
:1031F000E6E3F3E30E94BB38FF91EF910E94253B89
:103200000E94603800E00093C00603E10093C1060D
:10321000EF93FF93E8E4F3E30E94BB38FF91EF9153
:103220000E94253B0E94603800E00093C0060CE13C
:103230000093C106EF93FF93EAE5F3E30E94BB38E6
:10324000FF91EF910E94253B0E94603800E00093BF
:10325000C00605E20093C106EF93FF93ECE6F3E3AB
:103260000E94BB38FF91EF910E94253B0E9460387D
:1032700000E00093C00609E30093C106EF93FF93BB
:10328000EEE7F3E30E94BB38FF91EF91E4E9F3E34B
:1032900004E0019FE00DF11D05910093C00605912A
:1032A0000093C10605910093C20604910093C306E2
:1032B00000E00093C4060E94D9370E944E3A0E9453
:1032C0001A3B083009F40895043021F41A950AF4E1
:1032D00014E06ACF023029F41395153009F410E098
:1032E00063CF0130F1F4EAE7F0E002E0019FE00D86
:1032F000F11DEF93FF930E94253BE8EAF3E304E01E
:10330000019FE00DF11DC591D59105901590E02D1F
:10331000F12D0E947524A02DB12DFF91EF910E94F7
:103320002C3B42CF4D696E696D756D207468726F6C
:1033300074746C653A004865696768742044616D0F
:1033400070656E696E673A00486569676874204405
:103350002E204C696D6974203A00416C61726D20B9
:10336000312F313020766F6C74733A00536572766A
:103370006F2066696C746572202020203A004241FB
:10338000434B2050524556204E4558542043484107
:103390004E47450065007F0965097F1265127F1B56
:1033A000651B7F2465247F2D000014000000F401BC
:1033B00000001E000000007D000064000E94A33A8F
:1033C00001E00093C40601E00093C50600E000930D
:1033D000C00601E00093C106EF93FF93E4E2F5E33A
:1033E0000E94BB38FF91EF9100E00093C0060EE011
:1033F0000093C106EF93FF93E2E3F5E30E94BB382D
:10340000FF91EF91E4E8F0E00E94253B0E946038D4
:1034100000E00093C00607E10093C106EF93FF931D
:10342000E0E4F5E30E94BB38FF91EF910E94253B59
:103430000E94603800E00093C00600E20093C106DD
:10344000EF93FF93EEE4F5E30E94BB38FF91EF9119
:103450000E94253B0E94603800E00093C00609E20C
:103460000093C106EF93FF93ECE5F5E30E94BB38B0
:10347000FF91EF910E94253B0E94603800E000938D
:10348000C00609E30093C106EF93FF93EAE6F5E374
:103490000E94BB38FF91EF91E0E8F5E304E0019F63
:1034A000E00DF11D05910093C00605910093C10642
:1034B00005910093C20604910093C30600E00093B7
:1034C000C4060E94D9370E944E3A0E941A3B083027
:1034D00009F40895043021F41A950AF413E06ECF2C
:1034E000023029F41395143009F410E067CF01304D
:1034F000C1F4E4E8F0E002E0019FE00DF11D0E945C
:10350000253BC0E0D0E0E0E0FDE70E947524A02D5F
:10351000B12DE4E8F0E002E0019FE00DF11D0E9412
:103520002C3B4CCF537469636B205363616C696EA1
:103530006700526F6C6C202841696C2920203A008A
:1035400050697463682028456C6529203A005961E8
:10355000772028527564292020203A005468726F21
:1035600074746C65202020203A004241434B205067
:10357000524556204E455854204348414E47450039
:103580004D0D6E164D166E1F4D1F6E284D286E3157
:103590000FEF009308070E94A33A01E00093C406CE
:1035A00003E00093C5060091EF0600237AF402E2DF
:1035B0000093C00606E10093C106EF93FF93E8E194
:1035C000F8E30E94BB38FF91EF910EC006E2009332
:1035D000C00600E00093C106EF93FF93E2E1F8E339
:1035E0000E94BB38FF91EF910091EF0600238AF013
:1035F00000E00093C00609E30093C10601E00093D8
:10360000C506EF93FF93ECEFF7E30E94BB38FF9101
:10361000EF910091EF0600230AF4EAC000E0009366
:10362000C00601E10093C10601E00093C506EF93D7
:10363000FF93EEE1F8E30E94BB38FF91EF91009118
:10364000F70600234AF0EF93FF93E2E3F8E30E94CA
:10365000BB38FF91EF9108C0EF93FF93EEE2F8E3E0
:103660000E94BB38FF91EF9100E00093C0060BE190
:103670000093C106EEEFF8E300910507000FE00F9D
:103680000027F01FA591B491FD010E94BB3800E016
:103690000093400506E00093410500EE00934205CB
:1036A00010917F0520918005309181054091400562
:1036B00050914105609142050E94723B7093400514
:1036C000809341052092420560914005709141052B
:1036D0008091420508E00E94633B6093400570932F
:1036E00041058093420500E00093C00604E2009388
:1036F000C10601E00093C506EF93FF93E6E3F8E30C
:103700000E94BB38FF91EF91B0914005A091410517
:10371000D09142050E9460380EE20E94C138AD2F60
:10372000BB27B0934005A0934105D093420500E02C
:103730000093180600E0009319060AE000931A06A9
:1037400010914005209141053091420540911806A5
:103750005091190660911A060E94723B70934005C1
:103760008093410520924205B0914005A09141050A
:10377000D09142050E946038EF93FF93E0E4F8E3B4
:103780000E94BB38FF91EF9100E00093C0060DE26C
:103790000093C106EF93FF93E4E4F8E30E94BB3883
:1037A000FF91EF91B0915A06A0915B06D0915C0613
:1037B00000910B07002312F40E94603800E0009390
:1037C000C00606E30093C106EF93FF93E2E5F8E33A
:1037D0000E94BB38FF91EF91B0915D06A0915E060B
:1037E000D0915F0600910B07002312F40E9460380D
:1037F0000E944E3A002700930807089520202020B9
:10380000202020202020202020202020204D454E38
:103810005500403A3D3C00003A3F3E3C3B0053657A
:103820006C662D6C6576656C2069732000004F4EC8
:1038300000004F464600426174746572793A200078
:103840002056000020526F6C6C20416E676C653A08
:103850000000506974636820416E676C653A00002F
:103860004F4B2E00414343206E6F742063616C699F
:103870006272617465642E2020004572726F723A24
:10388000206E6F20526F6C6C20696E7075742E0004
:103890004572726F723A206E6F20506974636820AF
:1038A000696E707574004572726F723A206E6F2087
:1038B0005468726F20696E7075742E004572726F55
:1038C000723A206E6F2059617720696E7075742E80
:1038D00020004572726F723A206E6F204155582059
:1038E000696E7075742E20004572726F723A2053A3
:1038F000616E69747920636865636B2E200060389F
:1039000064387A389038A638BC38D238E838009015
:10391000F1061090070701200092FD060090FD06B9
:103920001090EF0601200092FD060091FD06002395
:1039300042F000E000934B0600934C0600934D06C6
:1039400033C030914B0640914C0601E0400F0027F8
:10395000301F30934B0640934C060FE10093400517
:1039600000E40093410500E00093420530914B06CE
:1039700040914C0650914D06609140057091410573
:103980008091420558174707360771F400E000930D
:103990004B0600934C0600934D0600270093EF065C
:1039A0000FEF0093F50608950091F106002392F5BC
:1039B0000EEF009340050CE00093410500E00093FA
:1039C000420530914F05409150055091510560914D
:1039D0004005709141058091420558174707360709
:1039E000ECF001E00093400504EF0093410500E096
:1039F0000093420530914F0540915005509151057B
:103A00006091400570914105809142055817470724
:103A1000360724F400E00093F20608950091F206C0
:103A200003950093F2060091F2060F3F09F097C04C
:103A3000B0914F05A0915005D0915105BB2392F54F
:103A400000910507003009F008950FEF0093EF068D
:103A500001E0009342060CE20093430600E000936D
:103A600044060E94941600E000938A0600938B0699
:103A700000938C0600938D0600E000938E06009361
:103A80008F06009390060093910601E00093920642
:103A900000E00093930600E00093940600E000939A
:103AA00095060CC000270093EF0600E00093420645
:103AB00006E90093430600E0009344060FEF0093ED
:103AC00004070FEF0093F50603E000933F0600E2C2
:103AD0000093400600E00093410600E000934B068F
:103AE00000934C0600934D0601E00093400504EF5F
:103AF0000093410500E00093420530914605409156
:103B000047055091480560914005709141058091AD
:103B10004205581747073607D4F40EEF00934005C7
:103B20000CE00093410500E000934205309146050A
:103B300040914705509148056091400570914105BD
:103B4000809142055817470736072CF008C00FEF41
:103B50000093F80604C000270093F80600C00895FB
:103B600010E4A0E0B5E0E4E0F0E00E944F3B0D93EC
:103B700031961A95D1F7E4E4F0E00E941A21009101
:103B8000400500939A050091410500939B05009123
:103B9000420500939C050E941A210E942A2100914F
:103BA00040050093A305009141050093A4050091F1
:103BB00042050093A5050E941A210E940A21009146
:103BC00040050093AC05009141050093AD050091BF
:103BD00042050093AE050E941A210E942A210091FD
:103BE00040050093B505009141050093B60500918D
:103BF00042050093B7050E941A21009140050093E9
:103C00009D050091410500939E050091420500939A
:103C10009F050E941A210E942A21009140050093CD
:103C2000A605009141050093A70500914205009368
:103C3000A8050E941A210E940A21009140050093C4
:103C4000AF05009141050093B00500914205009336
:103C5000B1050E941A210E942A210091400500937B
:103C6000B805009141050093B90500914205009304
:103C7000BA050E941A21009140050093A005009109
:103C800041050093A105009142050093A2050E9401
:103C90001A210E942A21009140050093A905009154
:103CA00041050093AA05009142050093AB050E94CF
:103CB0001A210E940A21009140050093B20500914B
:103CC00041050093B305009142050093B4050E949D
:103CD0001A210E942A21009140050093BB05009102
:103CE00041050093BC05009142050093BD0518E015
:103CF000E0E0F5E00581889401FD0894A79588949B
:103D000000FD0894B79538961A95A1F7A093E90697
:103D1000B093EA0608E0009340050CEA00934105E1
:103D200000E00093420500E000930007EF93FF934B
:103D3000309140054091410550914205E8EEF5E093
:103D40006091000703E0609FE00DF11D3193419306
:103D50005193FF91EF9100910007039500930007A5
:103D600000910007083011F7EAE7F0E00E941A21FD
:103D700000E0009318060CE20093190606E6009393
:103D80001A0610914005209141053091420540915D
:103D900018065091190660911A060E94723B7093A2
:103DA000BE058093BF052092C005E4E8F0E00E94C4
:103DB0001A210E940A21009140050093C10500913B
:103DC00041050093C205009142050093C305E6E852
:103DD000F0E00E941A210E940A2100914005009300
:103DE000C405009141050093C5050091420500936B
:103DF000C605E8E8F0E00E941A210E940A2100911D
:103E000040050093C705009141050093C805009146
:103E100042050093C905EAE8F0E00E941A210E94D9
:103E20000A21009140050093CA05009141050093C5
:103E3000CB05009142050093CC05E2E8F0E00E943A
:103E40001A2100E00093180604E60093190600E02A
:103E500000931A06309118064091190650911A06DF
:103E6000609140057091410580914205581B470BB8
:103E7000360B30933C0640933D0650933E066091CE
:103E80003C0670913D0680913E0607E00E94633B30
:103E900060933C0670933D0680933E06E2E7F0E0B7
:103EA0000E941A210091400500931B0600914105D4
:103EB00000931C060091420500931D06E4E7F0E024
:103EC0000E941A2100E0009318060AE000931906E8
:103ED00000E000931A0610914005209141053091B1
:103EE0004205409118065091190660911A060E94E9
:103EF000723B70931E0680931F0620922006ECE70B
:103F0000F0E00E941A2100914005009321060091E3
:103F10004105009322060091420500932306EEE737
:103F2000F0E00E941A210E942A210091400500938E
:103F30002406009141050093250600914205009357
:103F40002606E0E8F0E00E941A2100E0009318063F
:103F500003E00093190609EB00931A06109140053F
:103F60002091410530914205409118065091190663
:103F700060911A060E94723B709327068093280670
:103F800020922906E6E7F0E00E941A2160914005A0
:103F9000709141058091420503E00E94633B60936C
:103FA00040057093410580934205009140050093C0
:103FB0004506009141050093460600914205009395
:103FC0004706E8E7F0E00E941A21609140057091F1
:103FD00041058091420503E00E94633B60934005E8
:103FE0007093410580934205009140050093480677
:103FF00000914105009349060091420500934A064D
:10400000E5E9F0E00E941A210E940A210091400592
:1040100000936C060091410500936D0600914205E6
:1040200000936E06E7E9F0E00E941A210E94482101
:104030000091400500936F060091410500937006C2
:104040000091420500937106E9E9F0E00E941A210F
:104050000E940A21009140050093720600914105DB
:10406000009373060091420500937406EBE9F0E0BB
:104070000E941A210E944821009140050093750674
:104080000091410500937606009142050093770662
:10409000EDE5F0E00E943B3BB0937605A0937705F9
:1040A000D09378050E943B3BB0937905A0937A05A5
:1040B000D0937B050E943B3BB0937C05A0937D058C
:1040C000D0937E05E1E9F0E00E944F3B0093F606B5
:1040D000E2E9F0E00E944F3B0093ED06E3E9F0E0F7
:1040E0000E944F3B00930707E4E9F0E00E944F3B3A
:1040F0000093090701E00093EC0605E00093EB064E
:104100000FEF0093F50600270093080700270093A0
:10411000EF0600270093F0060AEF0093E80600E0A0
:104120000093FB0600E000934B0600934C060093BF
:104130004D0603E0009382050FEF0093830500E036
:104140000093840500E00093420600934306009329
:10415000440600E000933F060093400600934106AA
:1041600000E000935106009352060093530600E0CE
:1041700000935406009355060093560600270093BB
:104180000407002700930307002700930A0700276E
:1041900000930B0700E00093570600935806009326
:1041A000590600E000938A0600938B0600938C0664
:1041B00000938D0600E000938E0600938F06009317
:1041C00090060093910601E00093920600E00093B0
:1041D000930600E00093940600E00093950600E04B
:1041E00000935A0600935B0600935C0600E0009380
:1041F0005D0600935E0600935F06EDE9F0E00E9425
:104200004F3B002322F001E00093050708950E9430
:1042100066210895609140057091410580914205A5
:1042200004E00E94633B60934005709341058093D6
:10423000420508950E944F3B3196A02F0E944F3BAC
:104240003196B02FDD27B0934005A0934105D09360
:104250004205089500E00093180601E7009319064F
:1042600009EA00931A06109140052091410530910A
:104270004205409118065091190660911A060E9455
:10428000723B70934005809341052092420508954A
:1042900000E0009318060CE20093190606E600936E
:1042A0001A06109140052091410530914205409138
:1042B00018065091190660911A060E94723B70937D
:1042C0004005809341052092420508950E94A33A3B
:1042D00001E00093C40601E00093C506B091BE055D
:1042E000A091BF05D091C005C0E0D0E0E8E7F3E0C1
:1042F0000E94D72208F4C9C0B0912106A0912206DD
:10430000D0912306C0E0D0E0E5EFF1E00E94D72293
:1043100008F4BBC0B0912406A0912506D0912606D2
:10432000C0E0D0E0E3E5FDE00E94D72208F4ADC094
:10433000B0915E05A0915F05D0916005C4EFD1E01A
:10434000E6E7F2E00E94D72208F4BCC0B091610514
:10435000A0916205D0916305C4EFD1E0E6E7F2E0F9
:104360000E94D72208F4AEC0B0916405A091650503
:10437000D0916605C4EFD1E0E6E7F2E00E94D722D3
:1043800008F4A0C0B0917605A0917705D09178058A
:10439000C2ECD1E0E2E5F3E00E94D72208F492C03B
:1043A000B0917905A0917A05D0917B05C2ECD1E05E
:1043B000E2E5F3E00E94D72208F484C0B0917C05C6
:1043C000A0917D05D0917E05C2ECD1E0E2E5F3E05D
:1043D0000E94D72208F476C00E948A370E948A374A
:1043E000B0915505A0915605D0915705C4E6D0E08F
:1043F000E4E8F3E00E94D72208F481C0B0915805A8
:10440000A0915905D0915A05C4E6D0E0E4E8F3E064
:104410000E94D72208F473C0B0915B05A0915C059F
:10442000D0915D05C4E6D0E0E4E8F3E00E94D72235
:1044300008F465C0B0916D05A0916E05D0916F052F
:10444000C4E6D0E0E4E8F3E00E94D72208F457C0C5
:10445000B0917005A0917105D0917205C4E6D0E0CD
:10446000E4E8F3E00E94D72208F449C0B091730554
:10447000A0917405D0917505C4E6D0E0E4E8F3E0BE
:104480000E94D72208F43BC0089500E00093C006C4
:104490000FE00093C106EF93FF93E2ECF5E40E9476
:1044A000BB38FF91EF9100E00093C00608E1009354
:1044B000C106EF93FF93E6EDF5E40E94BB38FF9150
:1044C000EF9139C000E00093C0060FE00093C106F1
:1044D000EF93FF93E8E1F6E40E94BB38FF91EF9180
:1044E00000E00093C00608E10093C106EF93FF933C
:1044F000ECE2F6E40E94BB38FF91EF911CC000E0B3
:104500000093C0060FE00093C106EF93FF93E0E431
:10451000F6E40E94BB38FF91EF9100E00093C006E3
:1045200008E10093C106EF93FF93ECE2F6E40E94EA
:10453000BB38FF91EF9107E00093050700E000937F
:10454000C00608E20093C106EF93FF93ECEEF5E49A
:104550000E94BB38FF91EF9103E20093C00601E097
:104560000093C106EF93FF93E0E5F6E40E94BB38A9
:10457000FF91EF9100E00093C00609E30093C106AC
:10458000EF93FF93E2E0F6E40E94BB38FF91EF91D6
:104590000E944E3A299AD7E2C0E00E94FB3ADA958F
:1045A000D9F729980E941A3B0130E1F70895AC171A
:1045B000BD072CF0AE17BF0714F488940895089433
:1045C00008954F6E65206F72206D6F726520736560
:1045D0007474696E67006973206F757473696465BC
:1045E00020697473206C696D697473004368656336
:1045F0006B20796F75722073657474696E67732EA2
:1046000000002020202020202020202020202043C7
:104610004F4E54494E55450053656E736F7220637B
:10462000616C6962726174696F6E000064617461CB
:10463000206F7574206F66206C696D6974732E002D
:1046400053656E736F7220726177206461746100CC
:104650005741524E494E4721000008951127222705
:104660000E94A33A01E00093C40601E00093C5064E
:1046700000E00093C00601E00093C106EF93FF93B2
:10468000E4E3F8E40E94BB38FF91EF91A22FAA95D2
:104690004AF4EF93FF93E2E6F8E40E94BB38FF91FF
:1046A000EF9113C0AA954AF4EF93FF93E2E7F8E481
:1046B0000E94BB38FF91EF9108C0EF93FF93E4E8AD
:1046C000F8E40E94BB38FF91EF9100E00093C00630
:1046D0000EE00093C106EF93FF93EAE3F8E40E9433
:1046E000BB38FF91EF9130E0DFD00E94603800E0EE
:1046F0000093C0060090C10609E0000E0092C106BA
:10470000EF93FF93E4E4F8E40E94BB38FF91EF914C
:1047100031E0CAD00E94603800E00093C0060090EB
:10472000C1060BE0000E0092C106EF93FF93EEE48A
:10473000F8E40E94BB38FF91EF9132E0B5D00E94BF
:10474000603800E00093C0060090C10609E0000E4A
:104750000092C106EF93FF93E8E5F8E40E94BB38AE
:10476000FF91EF9133E0A0D00E94603800E0009309
:10477000C00609E30093C106EF93FF93E2E9F8E472
:104780000E94BB38FF91EF91E0E2F8E404E0019F62
:10479000E00DF11D05910093C00605910093C1063F
:1047A00005910093C20604910093C30600E00093B4
:1047B000C4060E94D9370E944E3A0E941A3B083024
:1047C00009F40895043021F41A950AF414E048CF4E
:1047D000023029F41395153009F410E041CF01306F
:1047E000F1F4103029F42395233009F4222738CF2F
:1047F000312F3A9559D0C0E0D0E0E0E0FDE70E94CB
:104800007524A02DB12D59D0223049F00091ED062C
:1048100000232AF42F9301E020274FD02F9120CF9F
:104820001D007F0A340D56163416561F3421562AA1
:10483000342A5633417869733A0050204761696ED3
:10484000203A200050204C696D69743A20004920BC
:104850004761696E203A200049204C696D69743ABD
:104860002000526F6C6C202841696C65726F6E2954
:10487000000050697463682028456C657661746F28
:104880007229000059617720285275646465722985
:1048900000004241434B2050524556204E4558544B
:1048A000204348414E47450011D00E944F3BA02F66
:1048B00031960E944F3BB02F089508D00A2F0E94D6
:1048C000573B31960B2F0E94573B0895E4E4F0E0EC
:1048D000022F000F000F000FE00F0027F01F032F23
:1048E000000FE00F0027F01F08952F923F924F9284
:1048F0005F926F927F928F921F932F933F934F936C
:104900005F936F937F938F939F93AF93BF93CF9357
:10491000DF93EF93FF9311E002E00093C40601E000
:104920000093C50600E00093C00608E30093C106AB
:104930000FE70093C20600E40093C3060E94D93734
:1049400001E00093C40600E00093C00609E3009371
:10495000C106EF93FF93EEE6FAE40E94BB38FF91A5
:10496000EF910EE10093C00603E10093C10602E659
:104970000093C2060AE20093C30602E00093C40655
:104980000E94D9370EE10093C00603E10093C106EF
:1049900002E60093C2060AE20093C30601E0009318
:1049A000C4060E9415380FE10093C00604E100938D
:1049B000C10601E60093C20609E20093C3060E9405
:1049C000153802E20093C00608E10093C10603E037
:1049D0000093C5060E9460380E944E3A2EE10E9464
:1049E000093B003011F02A95D1F7003009F411E0AD
:1049F0000E94093B0030C9F30E94F608083019F400
:104A0000A0E0B0E0AECF043061F4A11B0027B00BF2
:104A1000AC17BD070CF4DE0113951F3F08F01FEF24
:104A2000A0CF023041F4A10F0027B01FAE17BF077F
:104A30000CF0DF01F1CF0130C9F40A2E1B2EFF91DB
:104A4000EF91DF91CF91BF91AF919F918F917F9126
:104A50006F915F914F913F912F911F918F907F9018
:104A60006F905F904F903F902F9008957ACF434C76
:104A7000522020444F574E202020555020202044C3
:104A80004F4E450010E022270E94A33A01E0009318
:104A9000C40601E00093C50606E60093C00601E0E7
:104AA0000093C106EF93FF93E2E4FDE40E94BB385C
:104AB000FF91EF91A22FA395BB270E94603800E0E1
:104AC0000093C00601E00093C106EF93FF93E6E078
:104AD000FDE40E94BB38FF91EF9130E04FD162D1ED
:104AE0000E94603800E00093C0060090C10609E013
:104AF000000E0092C106EF93FF93E2E1FDE40E94F5
:104B0000BB38FF91EF9131E039D14CD10E94603830
:104B100000E00093C0060090C10609E0000E00927C
:104B2000C106EF93FF93EEE1FDE40E94BB38FF91D5
:104B3000EF9132E023D136D10E94603800E000933B
:104B4000C0060090C10609E0000E0092C106EF9376
:104B5000FF93EAE2FDE40E94BB38FF91EF9133E05E
:104B60000DD120D10E94603800E00093C006009073
:104B7000C10609E0000E0092C106EF93FF93E6E341
:104B8000FDE40E94BB38FF91EF9134E0F7D00AD1E9
:104B90000E94603800E00093C0060090C10609E062
:104BA000000E0092C106EF93FF93E6E4FDE40E943D
:104BB000BB38FF91EF9135E0E1D00F9300FF09C0C2
:104BC000EF93FF93EEE6FDE40E94BB38FF91EF9177
:104BD00008C0EF93FF93E8E6FDE40E94BB38FF9125
:104BE000EF9105E40093C006EF93FF93ECE4FDE43E
:104BF0000E94BB38FF91EF910F9101FF09C0EF9325
:104C0000FF93E2E7FDE40E94BB38FF91EF9108C0FB
:104C1000EF93FF93E8E7FDE40E94BB38FF91EF912B
:104C200000E00093C00609E30093C106EF93FF93F1
:104C3000E2E5FDE40E94BB38FF91EF91E6EEFCE473
:104C400004E0019FE00DF11D05910093C006059160
:104C50000093C10605910093C20604910093C30618
:104C600000E00093C4060E94D9370E944E3A0E9489
:104C70001A3B083009F40895043019F41A95177096
:104C800003CF023019F413951770FECE013051F5A1
:104C9000103019F423952770F7CE113078F01630C4
:104CA00068F4312F3A956AD07DD0C1E8DFEFEFE7A5
:104CB000F0E00E947524002D64D0E6CE163041F459
:104CC00035E05CD0A1E00A2700FD02605AD0DCCEBE
:104CD000173041F435E052D0A2E00A2700FD02600F
:104CE00050D0D2CED1CE78007F0A3A0056093A0988
:104CF00056123A12561B3A1B56243A24562D1D2D95
:104D00003C36632D7C365468726F74746C653A203F
:104D1000000041696C65726F6E203A200000456C9E
:104D2000657661746F723A20000052756464657232
:104D300020203A2000004F666673657420203A20D8
:104D4000000043483A00547970653A005261746536
:104D50003A004241434B2050524556204E4558544C
:104D6000204348414E474500536572766F004553D6
:104D700043004869676800004C6F770007D00C94C7
:104D80004F3B0F9303D00F910C94573BE4E0F0E0BE
:104D9000022F000F000F000FE00F0027F01FE30F9E
:104DA000F01F0895A02FBB27AA230AF4BFEF089590
:104DB000E0E0F5E0D6D00091CD050093000600912B
:104DC000CE05009301060091CF05009302060091E5
:104DD00040050093D005009141050093D105009155
:104DE00042050093D205E8E0F5E0BBD00091CD0587
:104DF000009303060091CE05009304060091CF05B1
:104E000000930506009140050093D30500914105EC
:104E10000093D405009142050093D505E0E1F5E04B
:104E2000A0D00091CD05009306060091CE05009319
:104E300007060091CF0500930806009140050093F6
:104E4000D605009141050093D705009142050093D6
:104E5000D805E8E1F5E085D00091CD05009309067D
:104E60000091CE0500930A060091CF0500930B0632
:104E7000009140050093D905009141050093DA05A2
:104E8000009142050093DB05E0E2F5E06AD0009175
:104E9000CD0500930C060091CE0500930D06009100
:104EA000CF0500930E06009140050093DC050091AC
:104EB00041050093DD05009142050093DE05E8E21F
:104EC000F5E04FD00091CD0500930F060091CE057F
:104ED000009310060091CF05009311060091400544
:104EE0000093DF05009141050093E0050091420524
:104EF0000093E105E0E3F5E034D00091CD050093A7
:104F000012060091CE05009313060091CF05009381
:104F10001406009140050093E205009141050093BD
:104F2000E305009142050093E405E8E3F5E019D0BC
:104F30000091CD05009315060091CE05009316064D
:104F40000091CF0500931706009140050093E505F9
:104F5000009141050093E605009142050093E705A5
:104F60000895DD27A481BB27AA2312F4DFEFBFEF4A
:104F7000B093CD05A093CE05D093CF0500E000936C
:104F800040050CE20093410506E6009342051091AE
:104F9000CD052091CE053091CF054091400550912F
:104FA0004105609142050E94723B7093CD0580934C
:104FB000CE052092CF05B091CD05A091CE05D09120
:104FC000CF05008130914C0540914D0550914E0523
:104FD0000E94B83B01813091850540918605509132
:104FE00087050E94B83B0281309188054091890570
:104FF00050918A050E94B83B038130918B05409106
:105000008C0550918D050E94B83BB0934005A0934C
:105010004105D093420508950E948A373091550585
:10502000409156055091570560915E0570915F055E
:1050300080916005581B470B360B30935505409304
:105040005605509357053091580540915905509198
:105050005A05609161057091620580916305581B46
:10506000470B360B309358054093590550935A051A
:1050700030915B0540915C0550915D056091640540
:105080007091650580916605581B470B360B309370
:105090005B0540935C0550935D0530916D05409133
:1050A0006E0550916F05609176057091770580913E
:1050B0007805581B470B360B30936D0540936E05F2
:1050C00050936F05309170054091710550917205B4
:1050D0006091790570917A0580917B05581B470B8B
:1050E000360B3093700540937105509372053091E3
:1050F0007305409174055091750560917C05709120
:105100007D0580917E05581B470B360B3093730548
:10511000409374055093750530916D0540916E056F
:1051200050916F05609148067091490680914A063A
:10513000580F471F361F30936D0540936E055093EF
:105140006F05309170054091710550917205609125
:1051500045067091460680914706580F471F361F37
:1051600030937005409371055093720500E00093F1
:10517000180600E00093190607E000931A06309124
:105180006D0540916E0550916F05609163067091B9
:10519000640680916506581B470B360B30939705C4
:1051A0004093980550939905109197052091980583
:1051B00030919905409118065091190660911A0690
:1051C0000E94723B709397058093980520929905F1
:1051D0003091630640916406509165066091970591
:1051E0007091980580919905580F471F361F30938D
:1051F00063064093640650936506309170054091B4
:1052000071055091720560916606709167068091F4
:105210006806581B470B360B30939705409398054B
:105220005093990510919705209198053091990513
:10523000409118065091190660911A060E94723B1F
:105240007093970580939805209299053091660692
:105250004091670650916806609197057091980596
:1052600080919905580F471F361F3093660640936B
:10527000670650936806309173054091740550910C
:1052800075056091690670916A0680916B06581BDE
:10529000470B360B3093970540939805509399052B
:1052A0001091970520919805309199054091180625
:1052B0005091190660911A060E94723B70939705EF
:1052C00080939805209299053091690640916A066D
:1052D00050916B06609197057091980580919905A2
:1052E000580F471F361F3093690640936A06509344
:1052F0006B0600E00093400500E00093410503EBDE
:105300000093420510916606209167063091680669
:105310004091400550914105609142050E94723BC9
:1053200070932A0680932B0620922C061091630618
:1053300020916406309165064091400550914105E9
:10534000609142050E94723B70932D0680932E0659
:1053500020922F0600915505009367050091560590
:105360000093680500915705009369050091580561
:1053700000936A050091590500936B0500915A0549
:1053800000936C0500E00093400504E100934105A3
:1053900000E00093420530912D0640912E06509179
:1053A0002F06609140057091410580914205581784
:1053B000470736070CF0F5C030912A0640912B06BE
:1053C00050912C06609140057091410580914205F5
:1053D0005817470736070CF0E4C0609140057091FC
:1053E000410580914205552744273327581B470B19
:1053F000360B309340054093410550934205309160
:105400002D0640912E0650912F0660914005709117
:105410004105809142055817470736070CF4C1C073
:1054200030912A0640912B0650912C066091400540
:1054300070914105809142055817470736070CF4D3
:10544000B0C000E0009340050CE30093410500E08C
:10545000009342053091690640916A0650916B06AF
:1054600060914005709141058091420558174707AA
:1054700036070CF096C0609140057091410580910F
:105480004205552744273327581B470B360B3093CB
:105490004005409341055093420530916906409183
:1054A0006A0650916B0660914005709141058091AC
:1054B00042055817470736070CF473C030915A0657
:1054C00040915B0650915C0660912A0670912B0614
:1054D00080912C06581B470B360B309340054093A8
:1054E00041055093420560914005709141058091BE
:1054F000420502E00E94633B6093400570934105C2
:105500008093420530916705409168055091690587
:10551000609140057091410580914205580F471FE9
:10552000361F3093670540936805509369053091A5
:105530005D0640915E0650915F0660912D06709168
:105540002E0680912F06581B470B360B30934005D3
:10555000409341055093420560914005709141058B
:105560008091420502E00E94633B60934005709386
:1055700041058093420530916A0540916B05509139
:105580006C05609140057091410580914205580F6E
:10559000471F361F30936A0540936B0550936C0587
:1055A00000C00E941A040E94F6040E947D0500912A
:1055B000F1060023AAF400E000938E0500938F0506
:1055C0000093900500E000939105009392050093ED
:1055D000930500E0009394050093950500939605CC
:1055E00060914605709147058091480504E00E944E
:1055F000633B60934605709347058093480560912F
:10560000490570914A0580914B0504E00E94633B77
:105610006093490570934A0580934B0560914F054F
:10562000709150058091510504E00E94633B6093A6
:105630004F057093500580935105109146052091B8
:105640004705309148054091C1055091C2056091D0
:10565000C3050E94723B70934605809347052092D4
:1056600048051091490520914A0530914B0540911C
:10567000C4055091C5056091C6050E94723B7093A8
:10568000490580934A0520924B0510914F052091C2
:105690005005309151054091C7055091C805609162
:1056A000C9050E94723B70934F058093500520926C
:1056B000510510914C0520914D0530914E054091BA
:1056C000CA055091CB056091CC050E94723B709346
:1056D0004C0580934D0520924E050091F70600235E
:1056E0000AF002C160914605709147058091480516
:1056F000552744273327581B470B360B3093460555
:1057000040934705509348056091460570914705C1
:105710008091480501E00E94633B609346057093C9
:1057200047058093480530915A0640915B06509199
:105730005C06609146057091470580914805581BAD
:10574000470B360B30939705409398055093990576
:1057500060919705709198058091990504E00E94E9
:10576000633B60939705709398058093990510911A
:105770009705209198053091990540911B0650910D
:105780001C0660911D060E94723B70933306809345
:1057900034062092350600911E06009330060091D3
:1057A0001F06009331060091200600933206C2D2F4
:1057B0000091330600934605009134060093470597
:1057C00000913506009348056091460570914705A4
:1057D0008091480501E00E94633B60934605709309
:1057E0004705809348056091490570914A0580916D
:1057F0004B05552744273327581B470B360B30934F
:10580000490540934A0550934B05609149057091B5
:105810004A0580914B0501E00E94633B6093490576
:1058200070934A0580934B0530915D0640915E066A
:1058300050915F066091490570914A0580914B0532
:10584000581B470B360B30939705409398055093A0
:10585000990560919705709198058091990504E0EC
:105860000E94633B60939705709398058093990518
:1058700010919705209198053091990540911B064C
:1058800050911C0660911D060E94723B7093330676
:10589000809334062092350600911E060093300650
:1058A00000911F06009331060091200600933206F6
:1058B00041D20091330600934905009134060093CC
:1058C0004A050091350600934B056091490570919A
:1058D0004A0580914B0501E00E94633B60934905B6
:1058E00070934A0580934B053091550540915605BC
:1058F0005091570560914605709147058091480584
:10590000581B470B360B30939705409398055093DF
:10591000990560919705709198058091990501E02E
:105920000E94633B60939705709398058093990557
:1059300010919705209198053091990540919A050D
:1059400050919B0560919C050E94723B70933306B9
:1059500080933406209235060091A305009330060B
:105960000091A405009331060091A505009332062D
:10597000E1D1009133060093850500913406009330
:105980008605009135060093870560919705709113
:1059900098058091990503E00E94633B6093970509
:1059A000709398058093990510919705209198051B
:1059B000309199054091AC055091AD056091AE05CF
:1059C0000E94723B709340058093410520924205EE
:1059D00030918E0540918F05509190056091400562
:1059E0007091410580914205580F471F361F309333
:1059F000330640933406509335060091B505009365
:105A000030060091B605009331060091B70500936A
:105A1000320690D10091330600938E050091340632
:105A200000938F0500913506009390053091850510
:105A3000409186055091870560918E0570918F0584
:105A400080919005580F471F361F3093850540936E
:105A50008605509387053091490540914A0550913C
:105A60004B05609158057091590580915A05581B56
:105A7000470B360B30939705409398055093990543
:105A800060919705709198058091990501E00E94B9
:105A9000633B6093970570939805809399051091E7
:105AA0009705209198053091990540919D05509159
:105AB0009E0560919F050E94723B70933306809310
:105AC0003406209235060091A60500933006009119
:105AD000A705009331060091A805009332062AD14C
